:100000000C942A000C9447000C9447000C94470071
:100010000C9447000C9447000C9447000C94470044
:100020000C9447000C9447000C9447000C94470034
:100030000C9447000C9447000C9447000C94470024
:100040000C9447000C9447000C9447000C94470014
:100050000C94470011241FBECFE5D8E0DEBFCDBF12
:1000600012E0A0E6B0E0E6EAF9E102C005900D92E8
:10007000AC37B107D9F712E0ACE7B2E001C01D928E
:10008000A038B107E1F70E9417030C94D10C0C942F
:1000900000000895089508950895AF92BF92CF92F9
:1000A000DF92EF92FF920F931F93DF93CF93CDB721
:1000B000DEB760970FB6F894DEBF0FBECDBF0E94CB
:1000C000A6027E010894E11CF11C0F2EF0E6CF2E53
:1000D000F0E0DF2EF02D0F2EF4EFAF2EF1E0BF2E6B
:1000E000F02D08EC10E00E94350400D000D000D0C4
:1000F000EDB7FEB73196F182E082D382C28295835A
:1001000084830E941B0A8DB79EB706960FB6F8949B
:100110009EBF0FBE8DBF81E060E0A7010E948E02EE
:100120009501C8010197F1F721503040D1F7DBCF9D
:10013000EF92FF920F931F93CF93DF930E94A6023B
:1001400081E060E04BE650E00E948E02C0E0D0E02B
:100150000F2EFFE7EF2EF0E0FF2EF02D00E010E075
:100160000E94F301833219F4289771F424C08A3273
:1001700039F482E060E0A7010E948E02E801F0CF2E
:1001800021960E945202ECCF82E060E040E950E00C
:100190000E948E020E94220128E833E148EC50E0E0
:1001A000CA010197F1F721503040D1F70E94280190
:1001B00020E137E208C082E060E04DE950E00E94B3
:1001C0008E0220E137E248EC50E0CA010197F1F7D6
:1001D00021503040D1F70E94F400DF91CF911F9160
:1001E0000F91FF90EF9008950E94A60281E060E0D9
:1001F0004BEA50E00E948E0228E53BE148EC50E0DB
:10020000CA010197F1F721503040D1F781E060E059
:100210004CEB50E00E948E0282E060E04EEC50E039
:100220000E948E020E94F301813319F08233D1F7CC
:1002300008950E949800F6CFE1E3F0E080818061AC
:1002400080830895E2E3F0E08081806180830895F7
:10025000E2E3F0E080818F7E80830895CF92DF9289
:10026000EF92FF920F931F93CF93DF936C018B015B
:100270007A014115510589F0C0E0D0E0CE018C0D26
:100280009D1D0E941C0CF8018083882331F00F5FB4
:100290001F4F2196EC16FD0689F7F8011082DF91B9
:1002A000CF911F910F91FF90EF90DF90CF90089525
:1002B0000F931F93CF93DF93EC018B01FB016081C0
:1002C000662359F08C2F9D2F21960F5F1F4F0E94A0
:1002D000240CF80160816623A9F7CE0160E00E943A
:1002E000240CDF91CF911F910F91089580EF84BB73
:1002F0008FEF85BB0895FF920F931F93CF93DF93EA
:100300008FEF85BB10927F0240E024E030E004E3F1
:1003100010E00F2EF0EFFF2EF02D61E070E0C5E34E
:10032000D0E055E0A3E3B0E0F801F082F9013497A2
:10033000CB01022E02C0880F991F0A94E2F7809524
:100340008883852F8A95F1F78C918F708F30C1F15A
:1003500080FD0CC040937F0280937E02EE0FFF1F52
:10036000EE0FFF1FE952FF4F808137C081FD0CC0A7
:1003700040937F0280937E02EE0FFF1FEE0FFF1F60
:10038000E852FF4F808129C082FD0CC040937F025C
:1003900080937E02EE0FFF1FEE0FFF1FE752FF4F0D
:1003A00080811BC083FD0CC040937F0280937E023E
:1003B000EE0FFF1FEE0FFF1FE652FF4F80810DC0B3
:1003C000422F43502F5F3F4F2830310509F0ACCF0B
:1003D00040937F0280937E0280E0DF91CF911F9156
:1003E0000F91FF9008950F931F93CF93DF93C0E475
:1003F000DCE90E947B01182F8823D9F3CE010197F5
:10040000F1F70E947B01082F181799F70E947B01D2
:100410000817E1F3802FDF91CF911F910F9108957D
:10042000E8E3F0E09081282F207F9F70292B208324
:1004300090819E7F908390819260908322E0922FA2
:100440009A95F1F790819D7F9083A8ECB0E0119789
:10045000F1F790818295807F9F70892B80838081C6
:10046000826080832A95F1F780818D7F808380EA86
:100470009FE00197F1F708958FEF87BB80E49CE937
:100480000197F1F782E00E94100288E20E941002B8
:100490008CE00E94100281E00E94100282E80E941B
:1004A00010020895E8E3F0E09081282F207F9F70EC
:1004B000292B20839081916090839081926090831A
:1004C00022E0922F9A95F1F790819D7F9083A8EC7E
:1004D000B0E01197F1F790818295807F9F70892B12
:1004E00080838081826080832A95F1F780818D7F6F
:1004F000808380EA9FE00197F1F70895CF93DF931F
:10050000FC018081882339F0EF010E945202898129
:1005100021968823D1F7DF91CF910895CF93DF9370
:10052000EA01813031F4862F8F7080680E941002BA
:1005300007C0823029F4862F8F70806C0E941002D1
:10054000CE010E947E02DF91CF91089581E00E944A
:10055000100280E797E10197F1F780E80E9410020E
:1005600008950E943C020E9476010E941C010E9494
:100570002B040E9452040E94FD0408950E94A602CA
:1005800080917201909173018230910591F08330D6
:100590009105E1F0019739F581E060E047EE50E028
:1005A0000E948E0282E060E048EF50E00E948E02DE
:1005B0002CC081E060E048E051E00E948E0282E0C1
:1005C00060E048E151E00E948E021FC081E060E0DF
:1005D00049E251E00E948E0282E060E049E351E08E
:1005E0000E948E0212C081E090E09093730180938C
:1005F000720181E060E047EE50E00E948E0282E0EE
:1006000060E048EF50E00E948E028091720190916C
:10061000730101969093730180937201049734F0F3
:1006200081E090E0909373018093720108950F939D
:100630001F93CF93DF930E94B1020E94BE0200ED90
:1006400017E0C8ECD0E00E94F3018333D9F0843383
:100650003CF4813379F0823394F48033F9F407C0A9
:100660008533B1F085338CF08633C1F414C00E9419
:10067000BE02E9CF0E94F4000E94BE02E4CF0E94B5
:100680004900E1CF0E944A00DECF0E944D00DBCF3F
:100690000E944B00D8CF0E944C00D5CF0E9422016F
:1006A0009801CE010197F1F721503040D1F70E9417
:1006B0002801C9CFEF92FF920F931F93CF93DF933F
:1006C00063E370E080E090E00E94FD0409E411E043
:1006D0000F2EF8E8EF2EF3E1FF2EF02DC8ECD0E05E
:1006E000C8010E940F059701CE010197F1F7215033
:1006F0003040D1F7F5CFAF92BF92CF92DF92EF9219
:10070000FF920F931F93DF93CF93CDB7DEB7609720
:100710000FB6F894DEBF0FBECDBF0E942B047E0142
:100720000894E11CF11C0F2EFBE5CF2EF1E0DF2E2B
:10073000F02D0F2EF4EFAF2EF1E0BF2EF02D08ECD0
:1007400010E00E94350400D000D000D0EDB7FEB715
:100750003196F182E082D382C282958384830E94A3
:100760001B0A8DB79EB706960FB6F8949EBF0FBEB4
:100770008DBF81E060E0A7010E948E029501C80153
:100780000197F1F721503040D1F7DBCF0F931F9342
:10079000CF93DF930E94760104EF11E0C8ECD0E024
:1007A0000E94F3010E9452029801CE010197F1F7D5
:1007B00021503040D1F70E94A602F2CFAF92BF92F3
:1007C000CF92DF92EF92FF920F931F93DF93CF931D
:1007D000CDB7DEB760970FB6F894DEBF0FBECDBFC2
:1007E0000E9452047E010894E11CF11C0F2EF6E6D3
:1007F000AF2EF1E0BF2EF02D0F2EF0E1CF2EF7E25D
:10080000DF2EF02D08EC10E00E94C60400D000D0CE
:1008100000D0EDB7FEB73196F182E082B382A282BA
:10082000958384830E941B0A8DB79EB706960FB6E8
:10083000F8949EBF0FBE8DBF81E060E0A7010E94CB
:100840008E029601C8010197F1F721503040D1F78F
:100850000E94A602D9CFEAE3F0E080818E7F8083F8
:1008600080E487B987E886B90895E6E2F0E0808100
:1008700080648083808186FDFDCF84B195B19093A3
:100880007D0280937C0224EF31E0AC01429FC001E5
:10089000439F900D529F900D1124892F8695869528
:1008A00090E00895E1E3F0E08081846080838081BE
:1008B000877F80830895E2E3F0E080818460808315
:1008C00085E38A95F1F780818B7F8083089520E00E
:1008D00030E040E050E0E0E3F0E0808183FD0DC0D7
:1008E0002F5F3F4F4F4F5F4F203C67E2360769E075
:1008F000460760E0560789F73BC0205C3742494015
:100900005040B1F11FBC82E08EBD1DBC1CBC20E07C
:1009100030E040E050E0A0E3B0E0ECE4F0E08C91A7
:1009200083FF11C08081918181569A4E30F52F5FEF
:100930003F4F4F4F5F4F203C87E2380789E0480721
:1009400080E0580761F78CB59DB5BC0180E090E070
:100950001EBC61362AEE720720E0820720E0920773
:1009600060F49B01AC01569547953795279509C0D2
:100970002FEF3FEF4FEF5FEF04C02EEF3FEF4FEF52
:100980005FEF622F732F842F952F089528EE33E0A9
:1009900048EC50E0CA010197F1F721503040D1F7FF
:1009A0000E945B040E9467046F3F2FEF72072FEFD6
:1009B00082072FEF920719F46FEF7FEF1BC06E3F96
:1009C0002FEF72072FEF82072FEF920719F46EEFC8
:1009D0007FEF10C00E94CF0720E030E048E652E4ED
:1009E0000E94CF062DEC3CEC4CEC5DE30E94A2068D
:1009F0000E947B07862F972F089583E389B9E0E44F
:100A0000F0E0108288E18AB986E080830895982F0B
:100A1000EBE2F0E0808185FFFDCF9CB90895CF9394
:100A2000DF93EC018881882331F021960E9407052D
:100A300088818823D1F7DF91CF910895EBE2F0E030
:100A400080818823ECF78CB10895A0E0B0E0EBE260
:100A5000F5E00C94E409DC012B01FA019C91923041
:100A600008F439C1EB018881823008F433C1943035
:100A700069F4843009F02FC111969C9111978981F6
:100A8000981709F428C1A4E7B1E025C1843009F41E
:100A900021C18230A9F4923009F01DC19A01AD0143
:100AA00088E0EA010990AE01E90109929E018150B6
:100AB000C1F7E201898111969C918923818308C144
:100AC000923009F407C112962D903C901397EB01D8
:100AD0008A819B811496AD90BD90CD90DC90179744
:100AE000EC80FD800E811F819101281B390BB9011B
:100AF00037FF04C066277727621B730B60327105CE
:100B00000CF061C0121613066CF537014801062E71
:100B100004C096948794779467940A94D2F721E05E
:100B200030E040E050E004C0220F331F441F551F47
:100B30006A95D2F721503040404050402E213F214D
:100B400040235123211531054105510521F021E0B4
:100B500030E040E050E079018A01E628F7280829D2
:100B600019293CC0232BD1F1260E371E3501460131
:100B7000062E04C096948794779467940A94D2F7CB
:100B800021E030E040E050E004C0220F331F441F5A
:100B9000551F6A95D2F721503040404050402A21DD
:100BA0003B214C215D21211531054105510521F0E5
:100BB00021E030E040E050E059016A01A628B72862
:100BC000C828D9280BC0821593052CF01C01AA2433
:100BD000BB24650103C0EE24FF24870111969C917C
:100BE000D20111968C91981709F445C0992339F0D8
:100BF000A80197012A193B094C095D0906C0A60105
:100C000095012E193F09400B510B57FD08C0118269
:100C10003382228224833583468357831DC081E03B
:100C200081833382228288279927DC01821B930BE0
:100C3000A40BB50B84839583A683B7830DC0220FC5
:100C4000331F441F551F2483358346835783828176
:100C500093810197938382832481358146815781D3
:100C6000DA01C9010197A109B1098F5F9F4FAF4F09
:100C7000BF4328F30BC0918333822282EA0CFB1C12
:100C80000C1D1D1DE482F5820683178383E080839B
:100C9000248135814681578157FF1AC0C901AA278F
:100CA00097FDA095BA2F81709070A070B070569586
:100CB000479537952795822B932BA42BB52B8483AF
:100CC0009583A683B78382819381019693838283E0
:100CD000DF0101C0D201CD01CDB7DEB7E2E10C9456
:100CE000000AA0E2B0E0E7E7F6E00C94F0096983BF
:100CF0007A838B839C832D833E834F835887E9E0DF
:100D0000EE2EF12CEC0EFD1ECE010196B7010E94D5
:100D10006C098E010F5E1F4FCE010596B8010E942F
:100D20006C098A8991E089278A8BC701B801AE01D5
:100D3000475E5F4F0E9425050E949708A096E6E057
:100D40000C940C0AA0E2B0E0E8EAF6E00C94F0099A
:100D500069837A838B839C832D833E834F8358875B
:100D6000F9E0EF2EF12CEC0EFD1ECE010196B7013D
:100D70000E946C098E010F5E1F4FCE010596B801CF
:100D80000E946C09C701B801AE01475E5F4F0E9427
:100D900025050E949708A096E6E00C940C0AA8E1AD
:100DA000B0E0E5EDF6E00C94EC0969837A838B837F
:100DB0009C832D833E834F835887B9E0EB2EF12C23
:100DC000EC0EFD1ECE010196B7010E946C098E014A
:100DD0000F5E1F4FCE010596B8010E946C09298550
:100DE000223008F47EC03989323010F4B8017CC05A
:100DF0008A859A8989278A87243011F0223031F434
:100E0000231709F06EC064E771E06EC0343039F426
:100E10001D861E861F86188A1C861B8604C03230DB
:100E200021F484E08987B7015FC02B853C858B89DD
:100E30009C89281B390B3C872B87ED84FE840F850A
:100E40001889AD88BE88CF88D88CEA14FB040C05BD
:100E50001D0540F4EE0CFF1C001F111F21503040F7
:100E60003C872B8720E030E040E050E080E090E0DD
:100E7000A0E0B0E460E070E0EA14FB040C051D059E
:100E800040F0282B392B4A2B5B2BEA18FB080C0966
:100E90001D09B695A79597958795EE0CFF1C001F29
:100EA000111F6F5F7F4F6F31710531F7DA01C90193
:100EB0008F779070A070B07080349105A105B10556
:100EC00061F427FD0AC0E114F1040105110529F0C0
:100ED000205C3F4F4F4F5F4F20782D873E874F87D5
:100EE000588BBE01675F7F4FCB010E9497086896C1
:100EF000EAE00C94080AACE0B0E0E1E8F7E00C941A
:100F0000F40969837A838B839C83CE010196BE01A9
:100F10006B5F7F4F0E946C098D81823061F182305E
:100F200050F1843021F48E81882351F12EC02F811D
:100F3000388537FD20C06E812F3131051CF06623C6
:100F4000F9F023C08EE190E0821B930B29853A854E
:100F50004B855C8504C056954795379527958A95AE
:100F6000D2F76623B1F050954095309521953F4FCB
:100F70004F4F5F4F0EC020E030E040E050E009C02E
:100F80002FEF3FEF4FEF5FE704C020E030E040E09D
:100F900050E8B901CA012C96E2E00C94100AA8E0CE
:100FA000B0E0E5EDF7E00C94EC097B018C016115F4
:100FB00071058105910519F482E0898360C083E0A1
:100FC00089838EE1C82ED12CDC82CB82ED82FE8219
:100FD0000F831887C801B7010E944808FC013197A8
:100FE000F7FF3BC0222733272E1B3F0B5701680119
:100FF000022E04C0D694C794B794A7940A94D2F74B
:1010000040E050E060E070E081E090E0A0E0B0E01F
:1010100004C0880F991FAA1FBB1F2A95D2F70197FA
:10102000A109B1098E219F21A023B1230097A10519
:10103000B10521F041E050E060E070E04A295B2911
:101040006C297D294D835E836F8378878EE190E0E4
:101050008E1B9F0B9C838B8312C0309781F00E2ECA
:1010600004C0EE0CFF1C001F111F0A94D2F7ED8282
:10107000FE820F831887CE1ADF0ADC82CB821A82A7
:10108000CE0101960E9497082896EAE00C94080A7F
:10109000EF92FF920F931F937B018C0180E0E81683
:1010A00080E0F80681E0080780E0180788F48FEFF9
:1010B000E816F1040105110531F028F088E090E010
:1010C000A0E0B0E017C080E090E0A0E0B0E012C087
:1010D00080E0E81680E0F80680E0080781E0180765
:1010E00028F088E190E0A0E0B0E004C080E190E06A
:1010F000A0E0B0E020E230E040E050E0281B390BF7
:101100004A0B5B0B04C016950795F794E7948A95F4
:10111000D2F7F701E458FE4F8081281B31094109BD
:101120005109C9011F910F91FF90EF900895DF922F
:10113000EF92FF920F931F93FC01E480F5800681EC
:101140001781D1808081823048F480E090E0A0E176
:10115000B0E0E82AF92A0A2B1B2BA5C0843009F439
:101160009FC0823021F4EE24FF24870105C0E114E2
:10117000F1040105110519F4E0E0F0E096C0628188
:1011800073819FEF623879070CF05BC022E83FEF74
:10119000261B370B2A3131052CF020E030E040E0EF
:1011A00050E02AC0B801A701022E04C076956795C9
:1011B000579547950A94D2F781E090E0A0E0B0E01F
:1011C00004C0880F991FAA1FBB1F2A95D2F7019749
:1011D000A109B1098E219F21A023B1230097A10568
:1011E000B10521F081E090E0A0E0B0E09A01AB0110
:1011F000282B392B4A2B5B2BDA01C9018F77907092
:10120000A070B07080349105A105B10539F427FFB5
:1012100009C0205C3F4F4F4F5F4F04C0215C3F4FE0
:101220004F4F5F4FE0E0F0E02030A0E03A07A0E051
:101230004A07A0E45A0710F0E1E0F0E079018A01E2
:1012400027C06038710564F5FB01E158FF4FD801F4
:10125000C7018F779070A070B07080349105A105A0
:10126000B10539F4E7FE0DC080E490E0A0E0B0E005
:1012700004C08FE390E0A0E0B0E0E80EF91E0A1F82
:101280001B1F17FF05C016950795F794E794319635
:1012900087E016950795F794E7948A95D1F705C0EE
:1012A000EE24FF248701EFEFF0E06E2F67956627AD
:1012B0006795902F9F77D794DD24D7948E2F8695AE
:1012C000492F462B582F5D29B701CA011F910F9155
:1012D000FF90EF90DF900895FC01DB014081518188
:1012E0002281622F6F7770E0221F2227221F9381B5
:1012F000892F880F822B282F30E0991F9927991F5B
:1013000011969C93119721153105A9F541155105A9
:101310006105710511F482E037C082E89FEF1396F2
:101320009C938E9312979A01AB0167E0220F331FB3
:10133000441F551F6A95D1F783E08C930DC0220F8F
:10134000331F441F551F12968D919C91139701973F
:1013500013969C938E931297203080E0380780E09C
:10136000480780E4580758F314962D933D934D9306
:101370005C93179708952F3F310579F44115510576
:101380006105710519F484E08C93089564FF03C02E
:1013900081E08C9312C01C9210C02F5730401396DE
:1013A0003C932E93129783E08C9387E0440F551F54
:1013B000661F771F8A95D1F7706414964D935D93DD
:1013C0006D937C93179708952F923F924F925F925F
:1013D0006F927F928F929F92AF92BF92CF92DF9245
:1013E000EF92FF920F931F93CF93DF93CDB7DEB7AA
:1013F000CA1BDB0B0FB6F894DEBF0FBECDBF09943E
:101400002A88398848885F846E847D848C849B8494
:10141000AA84B984C884DF80EE80FD800C811B81A2
:10142000AA81B981CE0FD11D0FB6F894DEBF0FBED1
:10143000CDBFED010895AEE0B0E0E1E2FAE00C943A
:10144000F2090D891E8986E08C831A8309838FEF48
:101450009FE79E838D839E01275E3F4FCE010196BD
:101460006F89788DA9010E943F0A2F813885020F6C
:10147000131FF80110822E96E4E00C940E0AABE0E4
:10148000B0E0E5E4FAE00C94E4093C012B015A01D8
:10149000FC0117821682838181FD03C06FEF7FEF0D
:1014A000C6C19AE0892E1E010894211C311CF3014B
:1014B0002381F20123FD859123FF81912F01882350
:1014C00009F4B2C1853239F423FD859123FF81915E
:1014D0002F01853229F490E0B3010E94470CE7CF39
:1014E000982FFF24EE249924FFE1FF15D0F09B32C2
:1014F00069F09C3228F4903259F0933291F40EC086
:101500009D3249F0903369F441E024C052E0F52A5D
:1015100084E0F82A28C098E0F92A25C0E0E1FE2AF4
:1015200022C0F7FC29C0892F80538A3070F4F6FE60
:1015300005C0989C902C1124980E15C0E89CE02CB6
:101540001124E80EF0E2FF2A0EC09E3229F4F6FCC8
:101550006BC140E4F42A07C09C3619F450E8F52A20
:1015600002C0983649F4F20123FD959123FF919131
:101570002F01992309F0B8CF892F8554833018F0B3
:101580008052833038F444E050E0A40EB51E5FE38F
:1015900059830FC0933631F0933779F0933509F0C2
:1015A00056C020C0F5018081898342E050E0A40E3E
:1015B000B51E610101E010E012C0F501C080D180CC
:1015C000F6FC03C06FEF7FEF02C0692D70E042E0D0
:1015D00050E0A40EB51EC6010E943C0C8C015FE7D2
:1015E000F52214C0F501C080D180F6FC03C06FEF76
:1015F0007FEF02C0692D70E042E050E0A40EB51EFE
:10160000C6010E94310C8C0150E8F52AF3FE07C098
:101610001AC080E290E0B3010E94470CEA948E2D3C
:1016200090E008171907A8F30EC0F601F7FC8591A2
:10163000F7FE81916F0190E0B3010E94470CE11029
:10164000EA94015010400115110579F7EAC094366B
:1016500011F0993669F5F7FE08C0F5012081318156
:101660004281538184E090E00AC0F501808191813C
:101670009C01442737FD4095542F82E090E0A80E4E
:10168000B91E9FE6F92257FF09C050954095309545
:1016900021953F4F4F4F5F4FE0E8FE2ACA01B90145
:1016A000A1012AE030E00E94730CD82ED21840C06D
:1016B000953729F41F2D1F7E2AE030E01DC01F2D15
:1016C000197F9F3661F0903720F4983509F0ACC04F
:1016D0000FC0903739F0983709F0A6C004C028E051
:1016E00030E00AC0106114FD146020E130E004C055
:1016F00014FD166020E132E017FF08C0F50160819B
:1017000071818281938144E050E008C0F5018081BD
:101710009181BC0180E090E042E050E0A40EB51E53
:10172000A1010E94730CD82ED2188FE7F82EF12257
:10173000F6FE0BC05EEFF522D91438F4F4FE07C0B4
:10174000F2FC05C08FEEF82202C01D2D01C0192D3C
:10175000F4FE0DC0FE01ED0DF11D8081803319F402
:1017600099EEF92208C01F5FF2FE05C003C08F2D5D
:10177000867809F01F5F0F2DF3FC14C0F0FE0FC038
:101780001E1510F09D2C0BC09D2C9E0C911A1E2D29
:1017900006C080E290E0B3010E94470C1F5F1E1557
:1017A000C0F304C01E1510F4E11A01C0EE2404FFBA
:1017B0000FC080E390E0B3010E94470C02FF1DC000
:1017C00001FD03C088E790E00EC088E590E00BC003
:1017D000802F867891F001FF02C08BE201C080E289
:1017E000F7FC8DE290E0B3010E94470C06C080E355
:1017F00090E0B3010E94470C9A94D914C0F3DA9494
:10180000F101ED0DF11D808190E0B3010E94470CC4
:10181000DD20A9F706C080E290E0B3010E94470CEA
:10182000EA94EE20C1F743CEF30166817781CB01C4
:101830002B96E2E10C94000AE199FECF9FBB8EBB90
:10184000E09A99278DB30895262FE199FECF9FBB8B
:101850008EBB2DBB0FB6F894E29AE19A0FBE0196AB
:101860000895FC010590615070400110D8F78095F3
:1018700090958E0F9F1F0895FC016150704001905C
:101880000110D8F7809590958E0F9F1F08950F93A4
:101890001F93CF93DF938C01EB018B8181FF1BC0E2
:1018A00082FF0DC02E813F818C819D8128173907D1
:1018B00064F4E881F9810193F983E88306C0E8853F
:1018C000F985802F0995892B31F48E819F810196AE
:1018D0009F838E8302C00FEF1FEFC801DF91CF916E
:1018E0001F910F910895FA01AA27283051F1203154
:1018F00081F1E8946F936E7F6E5F7F4F8F4F9F4FA4
:10190000AF4FB1E03ED0B4E03CD0670F781F891FE5
:101910009A1FA11D680F791F8A1F911DA11D6A0FB3
:10192000711D811D911DA11D20D009F468943F9166
:101930002AE0269F11243019305D3193DEF6CF0165
:101940000895462F4770405D4193B3E00FD0C9F72B
:10195000F6CF462F4F70405D4A3318F0495D31FD98
:101960004052419302D0A9F7EACFB4E0A6959795EB
:10197000879577956795BA95C9F7009761057105C1
:1019800008959B01AC010A2E06945795479537950B
:101990002795BA95C9F7620F731F841F951FA01D65
:0619A0000895F894FFCF4A
:1019A60054656D703A202564204300456E74657257
:1019B6002053747564656E7420436F64653A002025
:1019C6002020202020202020202020202020200031
:1019D600496E76616C696420436F646500436F6489
:1019E6006520416363657074656400417474656E57
:1019F60064616E63652052656164790031202E2032
:101A0600537562205374756420436F6465003220F9
:101A16002E2045786974003738392F3435362A3107
:101A260032332D20303D2B312E20417474656E6487
:101A3600616E20496E697400322E20537475646598
:101A46006E74204D616E6700332E2050726573658B
:101A56006E74205374756400342E2054656D706561
:101A6600726174204D6F6E7400352E205374756448
:101A7600656E74204461746100362E20547261666E
:101A8600666963204D6F6E740048656C6C6F2066E6
:101A9600726F6D20554152540D0A0054656D703AAF
:101AA600202564204300446973743A20256420632A
:101AB6006D000100000000000000000000010202AD
:101AC60003030303040404040404040405050505D0
:101AD60005050505050505050505050506060606AC
:101AE6000606060606060606060606060606060690
:101AF600060606060606060606060606070707077C
:101B0600070707070707070707070707070707075F
:101B1600070707070707070707070707070707074F
:101B2600070707070707070707070707070707073F
:101B3600070707070707070707070707080808082B
:101B4600080808080808080808080808080808080F
:101B560008080808080808080808080808080808FF
:101B660008080808080808080808080808080808EF
:101B760008080808080808080808080808080808DF
:101B860008080808080808080808080808080808CF
:101B960008080808080808080808080808080808BF
:101BA60008080808080808080808080808080808AF
:0C1BB600080808080808080808080808C3
:00000001FF
